:100000000C94D2000C94FA000C94FA000C94FA00B0
:100010000C94FA000C94FA000C94FA000C94FA0078
:100020000C94FA000C94FA000C94FA000C94FA0068
:100030000C94FA000C94FA000C94FA000C94FA0058
:100040000C9435010C94FA000C94A4030C94D60380
:100050000C94FA000C94FA000C94FA000C94FA0038
:100060000C94FA000C94FA004E414E494E495459F2
:10007000494E46CDCCCC3D0AD7233C17B7D1387773
:10008000CC2B329595E6241FB14F0A000020410089
:1000900000C84200401C4620BCBE4CCA1B0E5AAED3
:1000A000C59D7400407A10F35A00A0724E180900E2
:1000B00010A5D4E80000E87648170000E40B5402CD
:1000C0000000CA9A3B000000E1F505000080969808
:1000D00000000040420F000000A086010000001058
:1000E0002700000000E8030000000064000000009A
:1000F000000A00000000000100000000002C76D87B
:1001000088DC674F0823DFC1DFAE59E1B1B796E560
:10011000E3E453C63AE651997696E8E6C28426EBC4
:10012000898C9B62ED407C6FFCEFBC9C9F40F2BAD7
:10013000A56FA5F490055A2AF75C936B6CF9676D6F
:10014000C11BFCE0E40D47FEF520E6B500D0ED90C4
:100150002E0300943577050080841E080000204E91
:100160000A000000C80C333333330F986E1283112A
:1001700041EF8D2114893BE65516CFFEE6DB18D101
:10018000844B381BF77C1D901DA4BBE424203284D3
:10019000725E228100C9F124ECA1E53D27003610F2
:1001A00040103C1011241FBECFEFD8E0DEBFCDBF02
:1001B00011E0A0E0B1E0EAE4F5E302C005900D92A1
:1001C000A832B107D9F721E0A8E2B1E001C01D9241
:1001D000AB3DB207E1F711E0C2EAD1E004C02297DB
:1001E000FE010E94EB12CE39D107C9F70E9483109D
:1001F0000C94981A0C94000026E040E855E260E068
:1002000070E087E391E00C94110387E391E00E9492
:100210002E02892B51F087E391E00E944702682F5C
:1002200088E291E00E949909F0CF87E391E00E9473
:100230002E02892BA1F468E171E088E291E00E942E
:10024000240C81110CC068E271E087E391E00E9408
:100250008D0468E171E088E291E00E94BD0768E8E2
:1002600073E180E090E00C94AE011F920F920FB604
:100270000F9211242F933F938F939F93AF93BF932C
:1002800080912E0190912F01A0913001B091310108
:100290003091360123E0230F2D3720F40196A11D64
:1002A000B11D05C026E8230F0296A11DB11D2093A4
:1002B000360180932E0190932F01A0933001B093CB
:1002C00031018091320190913301A0913401B091BC
:1002D00035010196A11DB11D809332019093330128
:1002E000A0933401B0933501BF91AF919F918F914D
:1002F0003F912F910F900FBE0F901F9018952FB721
:10030000F89460912E0170912F01809130019091AD
:1003100031012FBF08953FB7F89480913201909139
:100320003301A0913401B091350126B5A89B05C0D9
:100330002F3F19F00196A11DB11D3FBF6627782FF1
:10034000892F9A2F620F711D811D911D42E0660F4A
:10035000771F881F991F4A95D1F708958F929F9212
:10036000AF92BF92CF92DF92EF92FF926B017C012E
:100370000E948B014B015C01C114D104E104F10422
:10038000F1F00E9435100E948B01681979098A09E1
:100390009B09683E73408105910570F321E0C21A04
:1003A000D108E108F10888EE880E83E0981EA11CB0
:1003B000B11CC114D104E104F10429F7DDCFFF9091
:1003C000EF90DF90CF90BF90AF909F908F90089567
:1003D0008230910538F0880F991F880F991F059773
:1003E0000197F1F70895789484B5826084BD84B54F
:1003F000816084BD85B5826085BD85B5816085BD20
:10040000EEE6F0E0808181608083E1E8F0E0108238
:10041000808182608083808181608083E0E8F0E079
:10042000808181608083E1EBF0E080818460808363
:10043000E0EBF0E0808181608083EAE7F0E080819A
:1004400084608083808182608083808181608083FA
:100450008081806880831092C1000895FC01818DA5
:10046000228D90E0805C9F4F821B91098F739927AA
:100470000895FC01918D828D981731F0828DE80FDF
:10048000F11D858D90E008958FEF9FEF0895FC0199
:10049000918D828D981761F0828DDF01A80FB11DBB
:1004A0005D968C91928D9F5F9F73928F90E00895DF
:1004B0008FEF9FEF08958CEF93E0892B49F080E058
:1004C00090E0892B29F00E94FC0381110C9400001C
:1004D0000895FC01848DDF01A80FB11DA35ABF4F01
:1004E0002C91848D90E001968F739927848FA68933
:1004F000B7892C93A089B1898C9180648C93938D5A
:10050000848D981306C00288F389E02D80818F7D49
:1005100080830895CF93DF93EC01888D8823C9F001
:10052000EA89FB89808185FD05C0A889B9898C91FC
:1005300086FD0FC00FB607FCF5CF808185FFF2CF97
:10054000A889B9898C9185FFEDCFCE010E946902FF
:10055000E7CFDF91CF910895CF92DF92FF920F9373
:100560001F93CF93DF931F92CDB7DEB76C0181E06D
:10057000D60158968C9358975B969C915B975C96A6
:100580008C915C97981307C05096ED91FC91519710
:10059000808185FD2EC0F601038D10E00F5F1F4F97
:1005A0000F731127F02EF601848DF81211C00FB6CB
:1005B00007FCF9CFD6015096ED91FC9151978081BF
:1005C00085FFF1CFC60169830E9469026981EBCF83
:1005D000838DE80FF11DE35AFF4F6083D6015B96D0
:1005E0000C935B975296ED91FC91539780818062BA
:1005F0000CC0D6015696ED91FC91579760835096AA
:10060000ED91FC91519780818064808381E090E03E
:100610000F90DF91CF911F910F91FF90DF90CF90BE
:100620000895BF92CF92DF92EF92FF92CF93DF9324
:10063000EC016A017B01B22EE889F98982E08083AE
:10064000411581EE580761057105A1F060E079E080
:100650008DE390E0A70196010E94C7122150310955
:10066000410951095695479537952795211580E100
:10067000380798F0E889F989108260E874E88EE11B
:1006800090E0A70196010E94C7122150310941094B
:1006900051095695479537952795EC85FD8530830B
:1006A000EE85FF852083188EEC89FD89B082EA896A
:1006B000FB89808180618083EA89FB8980818860F1
:1006C0008083EA89FB89808180688083EA89FB894D
:1006D00080818F7D8083DF91CF91FF90EF90DF90BD
:1006E000CF90BF900895CF93DF93EC01E881F9811B
:1006F0000284F385E02D0995EA89FB8980818F7E4C
:100700008083EA89FB898081877F8083EA89FB89EE
:1007100080818F778083EA89FB8980818F7D8083C8
:100720008A8D898FDF91CF910895FC01538D448D7F
:10073000252F30E0842F90E0821B930B541710F08C
:10074000CF960895019708951F920F920FB60F92BA
:1007500011242F938F939F93EF93FF93E091470181
:10076000F09148018081E0914D01F0914E0182FDB0
:1007700012C09081809150018F5F8F732091510141
:10078000821751F0E0915001F0E0E95CFE4F958F47
:100790008093500101C08081FF91EF919F918F91D3
:1007A0002F910F900FBE0F901F9018951F920F92D0
:1007B0000FB60F9211242F933F934F935F936F9334
:1007C0007F938F939F93AF93BF93EF93FF9387E3B1
:1007D00091E00E946902FF91EF91BF91AF919F91CB
:1007E0008F917F916F915F914F913F912F910F90DA
:1007F0000FBE0F901F90189587E391E00E942E0284
:1008000021E0892B09F420E0822F089580E090E018
:10081000089508950895CF92DF92EF92FF920F937B
:100820001F93CF93DF937C016A01EB0100E010E09E
:100830000C151D0571F06991D701ED91FC910190A6
:10084000F081E02DC7010995892B19F00F5F1F4F2B
:10085000EFCFC801DF91CF911F910F91FF90EF90E3
:10086000DF90CF900895EF92FF920F931F93CF9355
:10087000DF938C017B01C0E0D0E0F701EC0FFD1F9E
:100880006491662359F0F801A081B181ED91FC914A
:10089000C8010995892B11F02196EFCFCE01DF9188
:1008A000CF911F910F91FF90EF900895DC01ED9192
:1008B000FC91DB0114964D915C9115976D917C91A3
:1008C0000280F381E02D09940C949210DC01ED91EB
:1008D000FC910190F081E02D0994DB01ED91FC91F8
:1008E00011970190F081E02DBC01CD01099466E1E2
:1008F00071E00C9492100F931F93CF93DF93EC0150
:100900000E9433048C01CE010E947704800F911F56
:10091000DF91CF911F910F9108950F931F93CF9364
:10092000DF93EC010E9456048C01CE010E947704F3
:10093000800F911FDF91CF911F910F9108950F9319
:100940001F93CF93DF93EC010E9492108C01CE0194
:100950000E947704800F911FDF91CF911F910F911B
:1009600008950F931F93CF93DF93EC010E946604C9
:100970008C01CE010E947704800F911FDF91CF91EF
:100980001F910F9108950F931F93CF93DF93EC0165
:100990000E946D048C01CE010E947704800F911F8C
:1009A000DF91CF911F910F9108958F929F92AF92F7
:1009B000BF92DF92EF92FF920F931F93CF93DF933B
:1009C000CDB7DEB7A1970FB6F894DEBF0FBECDBF8F
:1009D0007C01F42FD52ECB0119A2223008F42AE095
:1009E0008E010F5D1F4F822E912CA12CB12C6F2FE9
:1009F0007D2DA50194010E94C712F22FD32ECA01AA
:100A0000015011096A3014F4E0E301C0E7E3E60F96
:100A1000D801EC93232B242B252B49F7B801C701D0
:100A20000E949210A1960FB6F894DEBF0FBECDBF04
:100A3000DF91CF911F910F91FF90EF90DF90BF90CA
:100A4000AF909F908F900895CF92DF92EF92FF9298
:100A50000F931F93CF93DF93EC016A017B01211564
:100A6000310579F4E881F9810190F081E02D642F5E
:100A7000DF91CF911F910F91FF90EF90DF90CF907A
:100A800009942A303105E9F477FF1AC06DE20E941B
:100A900066048C0144275527BA014C195D096E097B
:100AA0007F092AE0CE010E94D504800F911FDF91BB
:100AB000CF911F910F91FF90EF90DF90CF9008950D
:100AC0002AE0B701A601CE01DF91CF911F910F91CE
:100AD000FF90EF90DF90CF900C94D5049A01AB017A
:100AE000662757FD6095762F0C9424050F931F936E
:100AF000CF93DF93EC019A01AB01662757FD609518
:100B0000762F0E9424058C01CE010E947704800F6D
:100B1000911FDF91CF911F910F9108950F931F9314
:100B2000CF93DF93EC010E9424058C01CE010E943B
:100B30007704800F911FDF91CF911F910F9108953E
:100B40002115310541F4DC01ED91FC910190F0811A
:100B5000E02D642F09940C94D5049A01462F50E09F
:100B600060E070E00C94A0050F931F93CF93DF9388
:100B7000EC019A01462F50E060E070E00E94A00571
:100B80008C01CE010E947704800F911FDF91CF91DD
:100B90001F910F9108959A01AB0160E070E00C94F1
:100BA000A0050F931F93CF93DF93EC019A01AB0144
:100BB00060E070E00E94A0058C01CE010E947704E5
:100BC000800F911FDF91CF911F910F9108950F9387
:100BD0001F93CF93DF93EC010E94A0058C01CE01FF
:100BE0000E947704800F911FDF91CF911F910F9189
:100BF00008954F925F926F927F928F929F92AF92E1
:100C0000BF92CF92DF92EF92FF920F931F93CF93F9
:100C1000DF93EC016A017B01B22E9A01AB01C7019F
:100C2000B6010E94C312882319F069E171E027C060
:100C300026013701E89477F82FEF3FEF4FE75FE7A2
:100C4000C301B2010E94C31281110DC02FEF3FEF0B
:100C50004FE75FE7C301B2010E940D1118161CF4A3
:100C60006DE171E00CC02FEF3FEF4FE75FE4C7018C
:100C7000B6010E945C121816ACF461E271E0CE017C
:100C8000DF91CF911F910F91FF90EF90DF90CF9068
:100C9000BF90AF909F908F907F906F905F904F909C
:100CA0000C9492102FEF3FEF4FE75FECC701B601B6
:100CB0000E940D1187FDE1CF20E030E0A901C701BE
:100CC000B6010E940D1187FF0AC06DE2CE010E949D
:100CD00066048C01F7FAF094F7F8F09402C000E093
:100CE00010E0A12C60E070E080E09FE3AB1441F0E5
:100CF00020E030E040E251E40E941111A394F6CFCD
:100D00009B01AC01C701B6010E94A9106B017C01D7
:100D10000E947E112B013C010E94AA119B01AC0193
:100D2000C701B6010E94A8106B017C012AE0B30143
:100D3000A201CE010E94D504080F191FBB2039F073
:100D400065E271E0CE010E949210080F191F7B2C02
:100D5000772041F120E030E040E251E4C701B601E4
:100D60000E9460126B017C010E9479114B01AA2440
:100D700097FCA094BA2C2AE030E0B501A401CE0182
:100D80000E942405080F191FC501B4010E94AC116F
:100D90009B01AC01C701B6010E94A8106B017C0148
:100DA0007A94D6CFC801DF91CF911F910F91FF9018
:100DB000EF90DF90CF90BF90AF909F908F907F90FB
:100DC0006F905F904F9008950C94F9050F931F93C7
:100DD000CF93DF93EC010E94F9058C01CE010E94B4
:100DE0007704800F911FDF91CF911F910F9108958C
:100DF000FC01808191810C94A813CF93DF93EC01C7
:100E000088819981009711F00E94A8131982188295
:100E10001D821C821B821A82DF91CF9108950F934D
:100E20001F93CF93DF93EC018B016F5F7F4F88811E
:100E300099810E943714009731F0998388831B832E
:100E40000A8381E001C080E0DF91CF911F910F9173
:100E50000895CF93DF93EC0188819981892B29F044
:100E60008A819B818617970760F4CE010E940F0745
:100E7000882341F08C819D81892B19F4E881F981C7
:100E8000108281E0DF91CF910895EF92FF920F934E
:100E90001F93CF93DF93EC017B018A01BA010E947B
:100EA0002907811104C0CE010E94FD0607C01D83E1
:100EB0000C83B701888199810E948315CE01DF914F
:100EC000CF911F910F91FF90EF900895FC01118237
:100ED000108213821282158214826115710559F0F5
:100EE000FB0101900020E9F7AF0141505109461B79
:100EF000570B0C9445070895EF92FF920F931F93A1
:100F0000CF93DF93EC017B018A01BA010E9429078C
:100F1000811104C0CE010E94FD0607C01D830C8311
:100F2000B701888199810E944415CE01DF91CF914C
:100F30001F910F91FF90EF900895CF93DF93EC01F5
:100F4000FB018617970761F060817181611571055A
:100F500029F0448155810E94450702C00E94FD0688
:100F6000CE01DF91CF910895FC011182108213828E
:100F70001282158214820C949D07CF93DF93EC01AB
:100F80006115710561F0FB0101900020E9F7AF01E7
:100F900041505109461B570B0E94450702C00E9451
:100FA000FD06CE01DF91CF910895CF93DF9300D05E
:100FB000CDB7DEB7FC011182108213821282158236
:100FC000148269831A82BE016F5F7F4F0E94BD0742
:100FD0000F900F90DF91CF9108950F931F93CF93B0
:100FE000DF93CDB7DEB729970FB6F894DEBF0FBEFB
:100FF000CDBF8C01862FF8011182108213821282DC
:101000001582148250E0BE016F5F7F4F90E00E9416
:101010003E16BE016F5F7F4FC8010E94BD07299633
:101020000FB6F894DEBF0FBECDBFDF91CF911F91F9
:101030000F9108950F931F93CF93DF93CDB7DEB732
:1010400062970FB6F894DEBF0FBECDBF8C01CB0107
:10105000F80111821082138212821582148250E0EC
:10106000BE016F5F7F4F0E94CC15BE016F5F7F4F47
:10107000C8010E94BD0762960FB6F894DEBF0FBE8E
:10108000CDBFDF91CF911F910F9108950F931F93C3
:10109000CF93DF93CDB7DEB761970FB6F894DEBF7D
:1010A0000FBECDBF8C01CB01F801118210821382DB
:1010B00012821582148250E0BE016F5F7F4F0E9442
:1010C0003E16BE016F5F7F4FC8010E94BD0761964B
:1010D0000FB6F894DEBF0FBECDBFDF91CF911F9149
:1010E0000F9108950F931F93CF93DF93CDB7DEB782
:1010F000A2970FB6F894DEBF0FBECDBF8C01CB0117
:10110000BA01F801118210821382128215821482B0
:1011100030E0AE014F5F5F4F0E94E215BE016F5F8E
:101120007F4FC8010E94BD07A2960FB6F894DEBF9C
:101130000FBECDBFDF91CF911F910F9108950F93F7
:101140001F93CF93DF93CDB7DEB7A1970FB6F89477
:10115000DEBF0FBECDBF8C01CB01BA01F8011182F9
:101160001082138212821582148230E0AE014F5F2A
:101170005F4F0E941116BE016F5F7F4FC8010E9432
:10118000BD07A1960FB6F894DEBF0FBECDBFDF91AD
:10119000CF911F910F910895EF92FF920F931F939C
:1011A000CF93DF93CDB7DEB7A1970FB6F894DEBF2C
:1011B0000FBECDBF7C01CB01BA01F70111821082B5
:1011C000138212821582148242E0420F8E010F5F59
:1011D0001F4F0E94EF12BC01C7010E94BD07A196DC
:1011E0000FB6F894DEBF0FBECDBFDF91CF911F9138
:1011F0000F91FF90EF900895EF92FF920F931F933E
:10120000CF93DF93CDB7DEB7A1970FB6F894DEBFCB
:101210000FBECDBF7C01CB01BA01F7011182108254
:10122000138212821582148242E0420F8E010F5FF8
:101230001F4F0E94EF12BC01C7010E94BD07A1967B
:101240000FB6F894DEBF0FBECDBFDF91CF911F91D7
:101250000F91FF90EF9008950F931F93CF93DF931B
:1012600000D0CDB7DEB78C016115710561F0CB01FF
:1012700069837A830E944B15AC0169817A81C80128
:101280000E947C0702C00E94FD06C8010F900F90CB
:10129000DF91CF911F910F910895FC01118210826F
:1012A00013821282158214820C942C09EF92FF9201
:1012B0000F931F93CF93DF93EC017B010C811D8172
:1012C0006115710511F480E016C04115510591F0CA
:1012D000040F151FB8010E9429078823A1F3288154
:1012E00039818C819D81B701820F931F0E948315E4
:1012F0001D830C8381E0DF91CF911F910F91FF90AF
:10130000EF900895FB0144815581608171810C94B7
:1013100056096115710559F0FB0101900020E9F7AC
:10132000AF0141505109461B570B0C94560980E000
:101330000895CF93DF9300D0CDB7DEB769831A82CB
:1013400041E050E0BE016F5F7F4F0E9456090F9051
:101350000F90DF91CF910895EF92FF920F931F931B
:10136000CF93DF9300D000D0CDB7DEB77C01862FBE
:101370004AE050E08E010F5F1F4FB80190E00E94DD
:10138000CC15F80101900020E9F7AF014150510957
:10139000401B510BB801C7010E9456090F900F90D6
:1013A0000F900F90DF91CF911F910F91FF90EF90D1
:1013B0000895EF92FF920F931F93CF93DF93CDB7D2
:1013C000DEB728970FB6F894DEBF0FBECDBF7C0105
:1013D000CB014AE050E08E010F5F1F4FB8010E9421
:1013E000CC15F80101900020E9F7AF0141505109F7
:1013F000401B510BB801C7010E94560928960FB631
:10140000F894DEBF0FBECDBFDF91CF911F910F913A
:10141000FF90EF900895EF92FF920F931F93CF9359
:10142000DF93CDB7DEB727970FB6F894DEBF0FBEB8
:10143000CDBF7C01CB014AE050E08E010F5F1F4F12
:10144000B8010E943E16F80101900020E9F7AF01B3
:1014500041505109401B510BB801C7010E94560968
:1014600027960FB6F894DEBF0FBECDBFDF91CF91A8
:101470001F910F91FF90EF900895EF92FF920F93BD
:101480001F93CF93DF93CDB7DEB72E970FB6F894A7
:10149000DEBF0FBECDBF7C01CB01BA012AE030E038
:1014A0008E010F5F1F4FA8010E94E215F801019005
:1014B0000020E9F7AF0141505109401B510BB80121
:1014C000C7010E9456092E960FB6F894DEBF0FBED4
:1014D000CDBFDF91CF911F910F91FF90EF900895B5
:1014E000EF92FF920F931F93CF93DF93CDB7DEB7A9
:1014F0002D970FB6F894DEBF0FBECDBF7C01CB0198
:10150000BA012AE030E08E010F5F1F4FA8010E9450
:101510001116F80101900020E9F7AF01415051097F
:10152000401B510BB801C7010E9456092D960FB6FA
:10153000F894DEBF0FBECDBFDF91CF911F910F9109
:10154000FF90EF900895EF92FF920F931F93CF9328
:10155000DF93CDB7DEB764970FB6F894DEBF0FBE4A
:10156000CDBF7C01CB01BA018E010F5F1F4F22E07E
:1015700044E00E94EF12FC0101900020E9F7AF0166
:1015800041505109481B590BBC01C7010E94560923
:1015900064960FB6F894DEBF0FBECDBFDF91CF913A
:1015A0001F910F91FF90EF900895EF92FF920F938C
:1015B0001F93CF93DF93CDB7DEB764970FB6F89440
:1015C000DEBF0FBECDBF7C01CB01BA018E010F5F24
:1015D0001F4F22E044E00E94EF12FC010190002026
:1015E000E9F7AF0141505109481B590BBC01C70134
:1015F0000E94560964960FB6F894DEBF0FBECDBFA9
:10160000DF91CF911F910F91FF90EF900895EF928E
:10161000FF920F931F93CF93DF93EC017B01611532
:10162000710511F480E01BC0CB010E944B1500979F
:10163000A9F00C811D81080F191FB801CE010E946D
:101640002907882379F3288139818C819D81B7010D
:10165000820F931F0E9444151D830C8381E0DF914C
:10166000CF911F910F91FF90EF900895CF93DF934B
:10167000EC01FB0144815581608171810E94560912
:10168000811103C0CE010E94FD06CE01DF91CF91F2
:101690000895CF93DF93EC016115710569F0FB01AB
:1016A00001900020E9F7AF0141505109461B570B4B
:1016B0000E945609811103C0CE010E94FD06CE0191
:1016C000DF91CF910895CF93DF93EC010E949909A8
:1016D000811103C0CE010E94FD06CE01DF91CF91A2
:1016E0000895CF93DF93EC010E94AC09811103C0F0
:1016F000CE010E94FD06CE01DF91CF910895CF93D8
:10170000DF93EC010E94D909811103C0CE010E9430
:10171000FD06CE01DF91CF910895CF93DF93EC01C9
:101720000E940B0A811103C0CE010E94FD06CE016A
:10173000DF91CF910895CF93DF93EC010E943D0A92
:10174000811103C0CE010E94FD06CE01DF91CF9131
:101750000895CF93DF93EC010E94700A811103C0BA
:10176000CE010E94FD06CE01DF91CF910895CF9367
:10177000DF93EC010E94A30A811103C0CE010E94F5
:10178000FD06CE01DF91CF910895CF93DF93EC0159
:101790000E94D50A811103C0CE010E94FD06CE0130
:1017A000DF91CF910895CF93DF93EC010E94070B57
:1017B000811103C0CE010E94FD06CE01DF91CF91C1
:1017C0000895CF93DF93DC01ED91FC91EB01A881AB
:1017D000B981309711F01097C9F4109759F0EB01C7
:1017E0002C813D81232B31F08C9190E09195819556
:1017F000910914C0309781F0DC0114968D919C9171
:101800001597892B49F0808190E008C0BD01CF0178
:10181000DF91CF910C947A1580E090E0DF91CF9129
:101820000895FC0144815581FB01248135814217D3
:10183000530741F40E94E10B21E0892B09F020E0DD
:10184000822F089580E00895FC0124813581232BA7
:1018500031F421E061157105A1F0FB0108C0FC0124
:10186000808191816115710531F421E0FC01808155
:10187000882339F005C00E947A1521E0892B09F0F0
:1018800020E0822F08950E94E10B892F881F88276E
:10189000881F08950E94E10B21E0181619060CF02C
:1018A00020E0822F08950E94E10B21E0181619060E
:1018B0000CF420E0822F08950E94E10B892F80957F
:1018C000881F8827881F0895EF92FF920F931F9318
:1018D000CF93DF938617970731F1FC01248135817F
:1018E000FB014481558124173507F9F4232BD9F0E6
:1018F000FC0100811181FB01C081D181F80181913E
:101900008F01882381F0992787FD90950E943415D7
:101910007C018991992787FD90950E943415E816DE
:10192000F90661F302C081E001C080E0DF91CF9150
:101930001F910F91FF90EF900895FA01DB0114962B
:101940004D915C911597DC0114962D913C91159762
:10195000241B350B2E173F0788F08D919C91009723
:1019600069F0DB016D917C916115710539F08E0F85
:101970009F1F0E948A1521E0892B09F020E0822F09
:101980000895FC0144815581FB0124813581421772
:10199000530720F040E050E00C949D0C80E0089547
:1019A000FC0184819581DB0114964D915C91159722
:1019B0008417950798F0208131812115310571F048
:1019C0006D917C916115710549F0841B950B820F17
:1019D000931F0E947A1521E0892B09F020E0822FC5
:1019E0000895DC0114962D913C91159762177307A9
:1019F00028F4ED91FC91E60FF71F40830895FC0158
:101A0000848195816817790720F4808191810097FE
:101A100029F41092D40184ED91E00895860F971F68
:101A20000895FC01248135816217730748F4808191
:101A30009181009729F0FC01E60FF71F808108953E
:101A400080E008950C94110D0F931F93CF93DF93B3
:101A5000EB0141155105E9F02097D9F0FC016481B3
:101A6000758126173707A0F4621B730B8A0101509A
:101A700011096017710708F48B01FC016081718105
:101A8000620F731FA801CE010E949815C00FD11FCD
:101A90001882DF91CF911F910F910895CF93DF931B
:101AA000FC01848195814817590778F4C081D18160
:101AB000772767FD7095CE01840F951F0E946F15E3
:101AC000009719F08C1B9D0B02C08FEF9FEFDF91E9
:101AD000CF91089540E050E00C944E0DCF93DF93EA
:101AE000FC01848195814817590778F4C081D18120
:101AF000FB0160817181CE01840F951F0E94B21598
:101B0000009719F08C1B9D0B02C08FEF9FEFDF91A8
:101B1000CF91089540E050E00C946E0DDF92EF926B
:101B2000FF920F931F93CF93DF93EC018C819D81E4
:101B30004817590718F08FEF9FEF1BC08A010F5FFE
:101B40001F4FE881F981E00FF11FD0801082E880FB
:101B5000F980772767FD7095C7010E94A715F701E7
:101B6000E00FF11FD082009731F328813981821B69
:101B7000930BDF91CF911F910F91FF90EF90DF902A
:101B80000895FC0144815581415051090C948E0DFA
:101B9000AF92BF92CF92DF92EF92FF920F931F937B
:101BA000CF93DF937B01EA01FB014481558141150D
:101BB000510569F1FC01248135812115310539F187
:101BC0002417350720F1C217D30710F0E901219738
:101BD000FC0100811181C801AA24AA94BB24BA94F3
:101BE0006801CC0EDD1EC816D906A0F0F701608191
:101BF00071810E94B215009769F09C01201B310B86
:101C0000C217D30708F4950101965901ECCF8FEF65
:101C10009FEF01C0C501DF91CF911F910F91FF9000
:101C2000EF90DF90CF90BF90AF900895FC0144817A
:101C30005581FB0124813581421B530B0C94C80D47
:101C4000BF92CF92DF92EF92FF920F931F93CF93A9
:101C5000DF936C017B01EA0189012417350720F429
:101C60008D2FE901042F182F68E171E0C6010E9451
:101C70006607D70114968D919C911597C817D907BF
:101C8000C8F48017910708F48C01D701ED91FC91FD
:101C90001197E00FF11FB08010826D917C916C0F55
:101CA0007D1FC6010E94BD07D701ED91FC91E00F99
:101CB000F11FB082C601DF91CF911F910F91FF906C
:101CC000EF90DF90CF90BF900895DC01ED91FC91F3
:101CD000309729F40895861301C04083319680819E
:101CE0008111F9CF08952F923F924F925F926F9298
:101CF0007F928F929F92AF92BF92CF92DF92EF929C
:101D0000FF920F931F93CF93DF93EC015B017A0156
:101D10004C805D804114510409F4C5C0FB0164800E
:101D200075806114710409F4BEC0FA01C480D580C5
:101D3000C618D70808811981C114D104C1F4F5016E
:101D400060817181C8010E94B215EC01009709F40D
:101D5000AAC0F7016081718144815581CE010E9442
:101D60005415F701048115810C0F1D1FE8CFD7FC16
:101D700005C0FB0120803180420143C04801F501CC
:101D800060817181C8010E94B2152C01009719F180
:101D90003201601A710AA301B801C4010E945415EE
:101DA000680C791CF7016081718144815581C30100
:101DB0000E945415F70184809580860C971CF501CC
:101DC00004811581040D151D8C819D818C0D9D1D37
:101DD0009D838C83D4CFB801C401DF91CF911F9133
:101DE0000F91FF90EF90DF90CF90BF90AF909F90BA
:101DF0008F907F906F905F904F903F902F900C94BA
:101E00008315B101C8010E94B215009731F08C0111
:101E1000060D171D8C0C9D1CF4CF8414950409F439
:101E200042C08A819B818815990530F4B401CE01A6
:101E30000E940F078823B9F14C815D8141505109FF
:101E400057FD31C0B501CE010E94C80D8C0197FD30
:101E50002AC088819981F50124813581200F311FA5
:101E6000820F931F4C815D81421B530BBC018C0D73
:101E70009D1D0E945D158C819D818C0D9D1D9D83F6
:101E80008C83E881F981E80FF91F1082888199819C
:101E9000F7016081718144815581800F911F0E94FB
:101EA0005415A801CBCFDF91CF911F910F91FF90D7
:101EB000EF90DF90CF90BF90AF909F908F907F90EA
:101EC0006F905F904F903F902F900895CF93DF9346
:101ED000EC01CB012C813D816217730710F5411590
:101EE0005105F9F0B901681B790B4617570708F43B
:101EF000BA01E881F981261B370B3D832C83A901A8
:101F0000481B590B680F791F6E0F7F1F8E0F9F1F85
:101F10000E949815E881F9818C819D81E80FF91F55
:101F20001082DF91CF9108954FEF5FEF0C94660F11
:101F3000CF93DF93FC01C081D181209751F088813C
:101F4000882339F0992787FD90950E94341589934D
:101F5000F6CFDF91CF910895CF93DF93FC01C0813D
:101F6000D181209751F08881882339F0992787FD06
:101F700090950E943C158993F6CFDF91CF910895FB
:101F8000AF92BF92CF92DF92EF92FF920F931F9387
:101F9000CF93DF937C01DC01CD90DC901197C114CD
:101FA000D10409F441C01496CD91DC911597209786
:101FB000D9F156018501BFEFAB1ABB0AF801808148
:101FC000992787FD90950E942C15892B99F72197C9
:101FD000CC0DDD1D8881992787FD90950E942C15D9
:101FE000892B91F4AE014F5F5F4F401B510BD7011E
:101FF00015965C934E931497C016D10650F4B80111
:10200000C6010E94541505C0C017D10758F3219787
:10201000E1CFD701ED91FC91119714968D919C9190
:102020001597E80FF91F1082DF91CF911F910F9143
:10203000FF90EF90DF90CF90BF90AF900895FC019C
:1020400080819181009711F00C94051560E070E09B
:10205000CB010895FC0180819181009711F00C94CF
:10206000011560E070E0CB010895089568E171E02A
:1020700088E291E00C94660788E291E00C94F806FF
:1020800010923A011092390188EE93E0A0E0B0E09E
:1020900080933B0190933C01A0933D01B0933E019E
:1020A0008AE091E0909338018093370185EC90E0CD
:1020B000909344018093430184EC90E09093460117
:1020C0008093450180EC90E0909348018093470114
:1020D00081EC90E090934A018093490182EC90E07A
:1020E00090934C0180934B0186EC90E090934E01CD
:1020F00080934D01109250011092510110925201A3
:102100001092530108950E94F3010E9409040E9455
:10211000FC00CBE5D2E00E9405012097E1F30E948C
:102120005B02F9CF6115710581F0DB010D90002094
:10213000E9F7AD0141505109461B570BDC01ED9108
:10214000FC910280F381E02D099480E090E00895F5
:102150005058BB27AA270ED075C166D130F06BD17D
:1021600020F031F49F3F11F41EF45BC10EF4E095B2
:10217000E7FB51C1E92F77D180F3BA1762077307E4
:102180008407950718F071F49EF58FC10EF4E09561
:102190000B2EBA2FA02D0B01B90190010C01CA0121
:1021A000A0011124FF27591B99F0593F50F4503ECC
:1021B00068F11A16F040A22F232F342F4427585FBE
:1021C000F3CF469537952795A795F0405395C9F7D6
:1021D0007EF41F16BA0B620B730B840BBAF091508E
:1021E000A1F0FF0FBB1F661F771F881FC2F70EC02D
:1021F000BA0F621F731F841F48F487957795679500
:10220000B795F7959E3F08F0B3CF9395880F08F0E8
:102210009927EE0F979587950895D9D008F481E016
:1022200008950CD00FC107D140F0FED030F021F45A
:102230005F3F19F0F0C0511139C1F3C014D198F3C8
:102240009923C9F35523B1F3951B550BBB27AA2737
:1022500062177307840738F09F5F5F4F220F331FA9
:10226000441FAA1FA9F333D00E2E3AF0E0E830D075
:1022700091505040E695001CCAF729D0FE2F27D078
:10228000660F771F881FBB1F261737074807AB0746
:10229000B0E809F0BB0B802DBF01FF2793585F4FBB
:1022A0002AF09E3F510568F0B6C000C15F3FECF3D5
:1022B000983EDCF3869577956795B795F7959F5F80
:1022C000C9F7880F911D9695879597F90895E1E0D4
:1022D000660F771F881FBB1F621773078407BA0733
:1022E00020F0621B730B840BBA0BEE1F88F7E0958E
:1022F000089504D06894B111D9C00895BCD088F075
:102300009F5790F0B92F9927B751A0F0D1F0660FE1
:10231000771F881F991F1AF0BA95C9F712C0B130FC
:1023200081F0C3D0B1E00895C0C0672F782F88270F
:10233000B85F39F0B93FCCF3869577956795B3953B
:10234000D9F73EF490958095709561957F4F8F4FAA
:102350009F4F0895E89409C097FB3EF490958095AF
:10236000709561957F4F8F4F9F4F9923A9F0F92F5B
:1023700096E9BB279395F695879577956795B795D9
:10238000F111F8CFFAF4BB0F11F460FF1BC06F5FBF
:102390007F4F8F4F9F4F16C0882311F096E911C0D1
:1023A000772321F09EE8872F762F05C0662371F0F2
:1023B00096E8862F70E060E02AF09A95660F771F06
:1023C000881FDAF7880F9695879597F90895990FE2
:1023D0000008550FAA0BE0E8FEEF16161706E807EF
:1023E000F907C0F012161306E407F50798F0621B10
:1023F000730B840B950B39F40A2661F0232B242BE5
:10240000252B21F408950A2609F4A140A6958FEF03
:10241000811D811D089597F99F6780E870E060E055
:1024200008959FEF80EC089500240A94161617066D
:1024300018060906089500240A94121613061406B5
:1024400005060895092E0394000C11F4882352F018
:10245000BB0F40F4BF2B11F460FF04C06F5F7F4FD0
:102460008F4F9F4F089557FD9058440F551F59F0B7
:102470005F3F71F04795880F97FB991F61F09F3F71
:1024800079F087950895121613061406551FF2CF9A
:102490004695F1DF08C0161617061806991FF1CFEA
:1024A00086957105610508940895E894BB27662711
:1024B0007727CB0197F908958ADF08F48FEF089505
:1024C0000BD0C0CFB1DF28F0B6DF18F0952309F0AC
:1024D000A2CFA7CF1124EACFC6DFA0F3959FD1F3F7
:1024E000950F50E0551F629FF001729FBB27F00DC2
:1024F000B11D639FAA27F00DB11DAA1F649F662717
:10250000B00DA11D661F829F2227B00DA11D621F65
:10251000739FB00DA11D621F839FA00D611D221F1F
:10252000749F3327A00D611D231F849F600D211D03
:10253000822F762F6A2F11249F5750408AF0E1F0A6
:1025400088234AF0EE0FFF1FBB1F661F771F881FEF
:1025500091505040A9F79E3F510570F05CCFA6CF37
:102560005F3FECF3983EDCF3869577956795B795DA
:10257000F795E7959F5FC1F7FE2B880F911D969504
:10258000879597F9089523DF880B990B0895A1E2A9
:102590001A2EAA1BBB1BFD010DC0AA1FBB1FEE1FDD
:1025A000FF1FA217B307E407F50720F0A21BB30B28
:1025B000E40BF50B661F771F881F991F1A9469F7A4
:1025C00060957095809590959B01AC01BD01CF0100
:1025D0000895EE0FFF1F0590F491E02D0994EF92FE
:1025E0000F931F93CF93DF93E80147FF02C034E1BD
:1025F00001C034E0E42FFF27E7FDF095F7FF03C0AB
:10260000F195E195F109E32E022F2E2FAE010E94E4
:102610006316CE01DF91CF911F910F91EF90089536
:10262000CF93DF938230910510F482E090E0E09147
:10263000D701F091D80120E030E0A0E0B0E0309781
:1026400039F14081518148175907B8F048175907A7
:1026500071F482819381109729F013969C938E9345
:1026600012972CC09093D8018093D70127C02115D1
:10267000310531F04217530718F0A901DB0101C001
:10268000EF019A01BD01DF010280F381E02DD7CF78
:1026900021153105F9F0281B390B2430310580F460
:1026A0008A819B816115710521F0FB0193838283EF
:1026B00004C09093D8018093D701FE01329644C0A4
:1026C000FE01E20FF31F8193919322503109398368
:1026D00028833AC02091D5013091D601232B41F4B3
:1026E00020910201309103013093D6012093D5014E
:1026F00020910001309101012115310541F42DB7E0
:102700003EB74091040150910501241B350BE09127
:10271000D501F091D601E217F307A0F42E1B3F0B71
:102720002817390778F0AC014E5F5F4F2417350743
:1027300048F04E0F5F1F5093D6014093D50181930F
:10274000919302C0E0E0F0E0CF01DF91CF910895D6
:10275000CF93DF93009709F487C0FC01329713826F
:102760001282C091D701D091D801209781F42081A5
:102770003181280F391F8091D5019091D6018217A0
:10278000930779F5F093D601E093D5016DC0DE0192
:1027900020E030E0AE17BF0750F412964D915C91E7
:1027A00013979D014115510509F1DA01F3CFB38368
:1027B000A28340815181840F951F8A179B0771F472
:1027C0008D919C911197840F951F02969183808320
:1027D00012968D919C9113979383828321153105D5
:1027E00029F4F093D801E093D7013EC0D9011396A4
:1027F000FC93EE9312974D915D91A40FB51FEA17CC
:10280000FB0779F480819181840F951F0296D9018D
:1028100011969C938E938281938113969C938E93B1
:102820001297E0E0F0E08A819B81009719F0FE01A9
:10283000EC01F9CFCE01029628813981820F931FD6
:102840002091D5013091D6012817390769F43097C6
:1028500029F41092D8011092D70102C0138212827B
:10286000D093D601C093D501DF91CF910895A0E018
:10287000B0E0EDE3F4E10C94561AEC01CB012097A3
:1028800019F40E941013B8C0FE01E60FF71F9E0155
:1028900022503109E217F30708F4ACC0D9010D91B9
:1028A0001C91119706171707B8F00530110508F4A9
:1028B0009FC0A801445051094617570708F498C013
:1028C00002501109061B170B019311936D937C9312
:1028D000CF010E94A8138CC05B01A01AB10A4E015F
:1028E000800E911EA091D701B091D801612C712C5E
:1028F00060E070E0109709F449C0A815B905C9F562
:10290000ED90FC901197670142E0C40ED11CCA14EF
:10291000DB0478F147018A189B08640142E0C40E89
:10292000D11C1296BC9012971396AC91B5E0CB16C1
:10293000D10440F0B282A38391828082D9018D9329
:102940009C9309C00E5F1F4F0E0D1F1DF9011183CF
:102950000083EB2DFA2F6115710531F0DB01139621
:10296000FC93EE93129744C0F093D801E093D70103
:102970003FC06D917C9111976616770608F43B0174
:10298000BD0112960D90BC91A02DB4CF6091D501E0
:102990007091D60168157905E9F468167906D0F4C6
:1029A00040910001509101014115510541F44DB78D
:1029B0005EB76091040170910501461B570BE41747
:1029C000F507C0F4F093D601E093D501F9019183A6
:1029D00080830EC00E9410137C01009759F0A8015B
:1029E000BE010E945415CE010E94A813C70104C065
:1029F000CE0102C080E090E0CDB7DEB7EEE00C94EF
:102A0000721A662777270C94E1171F93FC01992708
:102A10008827BC01E89411911032E9F3193010F0C5
:102A20001E30C8F31B3251F01D3249F4689406C0C1
:102A30000E94FC15610F711D811D911D1191105394
:102A40001A30B0F33EF490958095709561957F4F64
:102A50008F4F9F4F1F9108959111EEC4803219F04E
:102A600089508550D0F708959111089581548A5165
:102A700008F4805E855A08959111089581568A510F
:102A800008F4805285580895FB01DC0105900D92F1
:102A90000020E1F70895FC0105900020E9F78095FA
:102AA00090958E0F9F1F0895FB01DC0102C00190DD
:102AB0000D9241505040D8F708956817790768F48F
:102AC000FB01DC01E40FF51FA40FB51F02C002904B
:102AD0000E9241505040D8F708950C945415FC01C3
:102AE0008191861721F08823D9F799270895319786
:102AF000CF010895FB01DC018D9101908019011037
:102B0000D9F3990B0895FB01DC0101900D9200208F
:102B1000E1F70895FB01DC014150504030F08D9108
:102B20000190801919F40020B9F7881B990B0895BA
:102B3000FB01DC014150504048F001900D92002013
:102B4000C9F701C01D9241505040E0F70895FC01C3
:102B500081E090E00190061609F4CF010020D1F742
:102B600001970895FB0151915523A9F0BF01DC01A4
:102B70004D9145174111E1F759F4CD010190002025
:102B800049F04D9140154111C9F3FB014111EFCFBF
:102B900081E090E0019708954532510520F44230DC
:102BA00010F00C94D715FB011082CB010895BB27C0
:102BB0004A3031F4992322F4BDE2909581959F4FDC
:102BC0000C944A162532310520F4223010F00C9472
:102BD000ED15FA011082CA010895BB272A3051F47D
:102BE000992342F4BDE290958095709561957F4F51
:102BF0008F4F9F4F0C941D16592F482F372F262F7C
:102C0000660F771F881F991F660F771F881F991FF0
:102C1000620F731F841F951F660F771F881F991FF0
:102C200008952532310520F4223010F00C941C1642
:102C3000FA011082CA010895BB27FA01A62F621774
:102C4000710581059105330B30FB66F0AA27660FED
:102C5000771F881F991FAA1FA21710F0A21B639548
:102C60003850A9F7A05DAA3308F0A95DA19336F703
:102C7000B111B1931082CA010C94371A4532510533
:102C800020F4423010F00C944916FB011082CB0165
:102C90000895BB27FB015527AA27880F991FAA1F54
:102CA000A41710F0A41B83955051B9F7A05DAA3367
:102CB00008F0A95DA193009779F7B111B193119232
:102CC000CB010C94371A6F927F929F92AF92BF9272
:102CD000CF92DF92EF92FF920F931F93CF93DF93E8
:102CE000CDB7DEB729970FB6F894DEBF0FBECDBFC4
:102CF0006A01B22E102F0C3320F4FF24F394F00E4F
:102D000002C04CE3F42E0F2D27E0AE014F5F5F4F62
:102D10000E9444197981272F2970213031F0E1FC7C
:102D200006C0E0FC06C060E005C06DE203C06BE2D7
:102D300001C060E2AE2DA07173FF36C0662311F0B2
:102D400084E001C083E08B1510F4B81A01C0B12CE7
:102D5000A1110BC0F6018B2D90E2882319F09193FD
:102D60008150FBCFCB0CD11CB12C662331F0F60186
:102D7000608396012F5F3F4F6901C6010396E2FE13
:102D800005C02EE4F601208331E404C02EE6F601EE
:102D9000208331E631832283FC012B2D30E2222374
:102DA000F1F131932150FBCF72FF40C0662311F047
:102DB00084E001C083E08B1510F4B81A01C0B12C77
:102DC000A1110BC0F6018B2D90E2882319F091938D
:102DD0008150FBCFCB0CD11CB12C662331F0F60116
:102DE000608396012F5F3F4F6901C6010396E2FEA3
:102DF00007C029E4F60120832EE4218326E406C0DF
:102E000029E6F60120832EE6218326E62283FC01B3
:102E10002B2D30E2222319F031932150FBCFFC01FE
:102E2000EB0DF11D10828EEF9FEFB7C0B1E0611185
:102E300001C0B0E04B2F50E01816190624F49C0195
:102E40002F5F3F4F02C021E030E0240F351F1123D8
:102E500029F0412F50E04F5F5F4F02C040E050E04B
:102E6000420F531F2B2D30E04217530714F4B41AAE
:102E700001C0B12C2E2D287159F4F6012B2D30E212
:102E8000222319F031932150FBCFCB0CD11CB12C54
:102E9000BB2331F0F601608396012F5F3F4F69013C
:102EA000A1110BC0F6012B2D30E3222319F0319331
:102EB0002150FBCFCB0CD11CB12CF80E0A81372F3F
:102EC0003071A32E74FF03C0013309F4FA941F1468
:102ED0002CF42F2D293018F028E001C021E0682FB4
:102EE000392F97FF02C060E030E0462F532F612C4E
:102EF000712C3EE2932EBC01621B71099B01DC0127
:102F0000A41BB50BE1E0F0E0EC0FFD1FAE0FBF1FFF
:102F1000E12EF12CF194E194F1084F3FFFEF5F07B0
:102F200031F4F6019082B6016F5F7F4F6B01841719
:102F300095074CF02417350734F4BD01660D771D55
:102F4000FB01118101C010E341505109FFEF6F1ADD
:102F50007F0AB6016F5F7F4F4E155F0524F0F601C3
:102F600010836B01DACF4817590739F4063320F480
:102F7000053319F4A11001C011E3F6011083FB0120
:102F80008B2D90E2882319F091938150FBCFFB01A8
:102F9000EB0DF11D108280E090E029960FB6F894B9
:102FA000DEBF0FBECDBFDF91CF911F910F91FF907C
:102FB000EF90DF90CF90BF90AF909F907F906F90F9
:102FC0000895A0E0B0E0E7EEF7E10C94581A8B0109
:102FD0006115710521F0DB018C9311969C93EC0136
:102FE0005E01BFEFAB1ABB0A7501C8808C2D90E063
:102FF0000E942C15892B11F0E501F2CFEDE2CE12E3
:1030000008C07E01F2E0EF0EF11CC980DD24D394EC
:1030100009C02BE2C21205C07E0142E0E40EF11CA1
:10302000C980D12CE701219743E050E060E770E0D0
:10303000CE010E941F1A892BC1F4239645E050E06F
:103040006BE670E0CE010E941F1A892B09F42596C9
:103050000115110519F0D801CD93DC93D11006C1EB
:1030600060E070E080E89FE70AC143E050E068E676
:1030700070E0CE010E941F1A892B59F40115110529
:1030800009F4F9C0B2E0EB0EF11CF801F182E08224
:10309000F2C0F70160E070E0CB01C0E0D0E07F015A
:1030A000A0EDAA2EAC0C29E02A1530F14D2D42607E
:1030B000B42E2D2D2870D2FE04C0211125C02196DA
:1030C00023C021112197A5E0B0E09B01AC010E9433
:1030D000471A660F771F881F991F6A0D711D811D82
:1030E000911D6839A9E97A078A07A9E19A0760F072
:1030F000BD2DB660BB2E08C02EEFA2120AC0D3FCB5
:1031000050C04D2D4860B42E3196D701CC90DB2CA9
:10311000C6CF2C2D2F7D253409F043C0A081AD32C0
:1031200041F4BD2DB061DB2E7F0122E0E20EF11CE7
:103130000CC07F01AB3231F04FEFE41AF40A21E00A
:1031400030E006C0A2E0EA0EF11CA18122E030E0EE
:10315000A053AA3018F0E21AF30A23C0F70120E0C6
:1031600030E02038BCE03B075CF4A901440F551F58
:10317000440F551F240F351F220F331F2A0F311DF7
:10318000AF014F5F5F4F7A01A081A053AA3010F4C6
:10319000FA01E7CFD4FE03C0319521953109C20F62
:1031A000D31FD1FE09C00115110531F0E1E0EE1A7F
:1031B000F108D801ED92FC920E94AA112D2D2370E6
:1031C000233019F04B015C0106C04B015C01B7FADA
:1031D000B094B7F8B09420E030E0A901C501B40183
:1031E0000E940D11882309F43EC0D7FF06C0D19577
:1031F000C195D10907E810E002C00FE910E06801AD
:10320000B8E1CB1AD10890E2E92EF12CCE15DF05FA
:1032100074F0F8012591359145915491C501B4019F
:103220000E9460124B015C01CE19DF09EFCF045000
:103230001109F594E7940C151D0541F78A2D880FA7
:103240008B2D881F8F3F49F020E030E0A901C50198
:10325000B4010E940D11811106C082E290E09093AA
:10326000DA018093D901C501B40109C060E070E0C2
:1032700080E89FEF04C060E070E080EC9FE7CDB78E
:10328000DEB7ECE00C94741A283008F027E03327FE
:10329000DA01990F311D87FD916000966105710576
:1032A00039F432602E5F3D9330E32A95E1F70895BB
:1032B0009F3F30F080387105610509F03C5F3C5F4D
:1032C0003D93913008F08068911DDF93CF931F9359
:1032D0000F93FF92EF92192F987F9695E92F96956D
:1032E0009695E90FFF27E350FF4F99273327EE24E8
:1032F000FF24A701E70105900894079428F4360FEE
:10330000E71EF81E491F511D660F771F881F991F62
:103310000694A1F70590079428F4E70EF81E491FBC
:10332000561FC11D770F881F991F661F0694A1F7AE
:103330000590079428F4F80E491F561FC71FD11D8A
:10334000880F991F661F771F0694A1F705900794B1
:1033500020F4490F561FC71FD81F990F661F771FEC
:10336000881F0694A9F784911095177041F0D6959F
:10337000C79557954795F794E7941A95C1F7E3EAEF
:10338000F0E06894159015913591659195910590AF
:103390007FE27395E118F10A430B560BC90BD00974
:1033A000C0F7E10CF11E431F561FC91FD01D7EF44C
:1033B000703311F48A95E6CFE894015030F0080F8D
:1033C0000AF40027021708F4202F2395022F7A33DE
:1033D00028F079E37D932A95E9F710C07D932A952B
:1033E00089F6069497956795379517951794E11880
:1033F000F10A430B560BC90BD00998F023957E9127
:1034000073957A3308F070E37C932013B8F77E91BC
:1034100070617D9330F0839571E37D9370E32A951D
:10342000E1F71124EF90FF900F911F91CF91DF9161
:10343000992787FD90950895992788270895FB017E
:10344000DC014150504088F08D9181341CF08B3567
:103450000CF4805E659161341CF06B350CF4605E99
:10346000861B611171F3990B0895881BFCCFDC0159
:10347000FC01672F71917723E1F7329704C07C91AB
:103480006D9370836291AE17BF07C8F308950E94D1
:10349000891AA59F900DB49F900DA49F800D911D3A
:1034A000112408952F923F924F925F926F927F92D4
:1034B0008F929F92AF92BF92CF92DF92EF92FF9244
:1034C0000F931F93CF93DF93CDB7DEB7CA1BDB0BF0
:1034D0000FB6F894DEBF0FBECDBF09942A88398895
:1034E00048885F846E847D848C849B84AA84B9849C
:1034F000C884DF80EE80FD800C811B81AA81B981A8
:10350000CE0FD11D0FB6F894DEBF0FBECDBFED01BB
:103510000895A29FB001B39FC001A39F700D811DAC
:103520001124911DB29F700D811D1124911D0895CC
:1035300011E0C2EAD1E004C0FE010E94EB12229623
:0A354000C43AD107C9F7F894FFCF91
:10354A000000DB01800000000000AC020B042E0228
:10355A00470239028A020D0A006E616E00696E66C0
:08356A00006F7666002E0000E0
:00000001FF
