:100000000C9461000C9473000C9473000C947300B6
:100010000C9473000C9473000C9473000C94730094
:100020000C9473000C9473000C9473000C94730084
:100030000C9473000C9473000C9473000C94730074
:100040000C9495000C9473000C9473000C94730042
:100050000C9473000C9473000C9473000C94730054
:100060000C9473000C94730000000008000201005F
:100070000003040700000000000000000102040863
:100080001020408001020408102001020408102002
:10009000040404040404040402020202020203032E
:1000A00003030303000000002300260029000000D2
:1000B0000000250028002B0000000000240027007D
:1000C0002A0011241FBECFEFD8E0DEBFCDBF21E054
:1000D000A0E0B1E001C01D92A930B207E1F70E9493
:1000E00055020C9464020C94000061E08DE00E94C3
:1000F000B70160E080E00E94B70160E081E00C940D
:10010000B70161E08DE00E94F00168EE73E080E0ED
:1001100090E00E940E0160E08DE00E94F00168EE28
:1001200073E080E090E00C940E011F920F920FB6E6
:100130000F9211242F933F938F939F93AF93BF936D
:100140008091000190910101A0910201B091030101
:100150003091080123E0230F2D3720F40196A11DD3
:10016000B11D05C026E8230F0296A11DB11D2093E5
:1001700008018093000190930101A0930201B093C4
:1001800003018091040190910501A0910601B091B5
:1001900007010196A11DB11D8093040190930501F3
:1001A000A0930601B0930701BF91AF919F918F91EA
:1001B0003F912F910F900FBE0F901F9018952FB762
:1001C000F894609100017091010180910201909179
:1001D00003012FBF08953FB7F894809104019091D7
:1001E0000501A0910601B091070126B5A89B05C0A5
:1001F0002F3F19F00196A11DB11D3FBF6627782F33
:10020000892F9A2F620F711D811D911D42E0660F8B
:10021000771F881F991F4A95D1F708958F929F9253
:10022000AF92BF92CF92DF92EF92FF926B017C016F
:100230000E94EB004B015C01C114D104E104F10404
:10024000F1F00E9454020E94EB00681979098A09B2
:100250009B09683E73408105910570F321E0C21A45
:10026000D108E108F10888EE880E83E0981EA11CF1
:10027000B11CC114D104E104F10429F7DDCFFF90D2
:10028000EF90DF90CF90BF90AF909F908F900895A8
:100290008230910538F0880F991F880F991F0597B4
:1002A0000197F1F70895789484B5826084BD84B590
:1002B000816084BD85B5826085BD85B5816085BD61
:1002C000EEE6F0E0808181608083E1E8F0E010827A
:1002D000808182608083808181608083E0E8F0E0BB
:1002E000808181608083E1EBF0E0808184608083A5
:1002F000E0EBF0E0808181608083EAE7F0E08081DC
:10030000846080838081826080838081816080833B
:100310008081806880831092C1000895833081F0CD
:1003200028F4813099F08230A1F008958730A9F047
:100330008830B9F08430D1F4809180008F7D03C083
:10034000809180008F7780938000089584B58F77A7
:1003500002C084B58F7D84BD08958091B0008F77F1
:1003600003C08091B0008F7D8093B0000895CF933B
:10037000DF9390E0FC01E458FF4F2491FC01E0572B
:10038000FF4F8491882349F190E0880F991FFC0169
:10039000E854FF4FA591B49182559F4FFC01C59140
:1003A000D4919FB7611108C0F8948C912095822355
:1003B0008C93888182230AC0623051F4F8948C9126
:1003C000322F309583238C938881822B888304C0BD
:1003D000F8948C91822B8C939FBFDF91CF910895DD
:1003E0000F931F93CF93DF931F92CDB7DEB7282FC4
:1003F00030E0F901E859FF4F8491F901E458FF4FCB
:100400001491F901E057FF4F04910023C9F08823AC
:1004100021F069830E948E016981E02FF0E0EE0FE8
:10042000FF1FE255FF4FA591B4919FB7F8948C91AF
:10043000611103C01095812301C0812B8C939FBF54
:100440000F90DF91CF911F910F910895CF93DF937C
:10045000282F30E0F901E859FF4F8491F901E45861
:10046000FF4FD491F901E057FF4FC491CC2391F095
:1004700081110E948E01EC2FF0E0EE0FFF1FEC5572
:10048000FF4FA591B4912C912D2381E090E021F4B0
:1004900080E002C080E090E0DF91CF91089580E09D
:1004A00090E008950895089508950E9453010E94D0
:1004B00052020E947500C0E0D0E00E9481002097A7
:0C04C000E1F30E940000F9CFF894FFCF98
:00000001FF
